{
  "contractName": "BabaTokenPool",
  "abi": [
    {
      "inputs": [
        {
          "internalType": "contract BabaToken",
          "name": "_babaToken",
          "type": "address"
        },
        {
          "internalType": "contract MetroToken",
          "name": "_metroToken",
          "type": "address"
        }
      ],
      "payable": false,
      "stateMutability": "nonpayable",
      "type": "constructor"
    },
    {
      "constant": true,
      "inputs": [],
      "name": "babaToken",
      "outputs": [
        {
          "internalType": "contract BabaToken",
          "name": "",
          "type": "address"
        }
      ],
      "payable": false,
      "stateMutability": "view",
      "type": "function"
    },
    {
      "constant": true,
      "inputs": [
        {
          "internalType": "address",
          "name": "",
          "type": "address"
        }
      ],
      "name": "hasStaked",
      "outputs": [
        {
          "internalType": "bool",
          "name": "",
          "type": "bool"
        }
      ],
      "payable": false,
      "stateMutability": "view",
      "type": "function"
    },
    {
      "constant": true,
      "inputs": [
        {
          "internalType": "address",
          "name": "",
          "type": "address"
        }
      ],
      "name": "isStaking",
      "outputs": [
        {
          "internalType": "bool",
          "name": "",
          "type": "bool"
        }
      ],
      "payable": false,
      "stateMutability": "view",
      "type": "function"
    },
    {
      "constant": true,
      "inputs": [],
      "name": "metroToken",
      "outputs": [
        {
          "internalType": "contract MetroToken",
          "name": "",
          "type": "address"
        }
      ],
      "payable": false,
      "stateMutability": "view",
      "type": "function"
    },
    {
      "constant": true,
      "inputs": [],
      "name": "name",
      "outputs": [
        {
          "internalType": "string",
          "name": "",
          "type": "string"
        }
      ],
      "payable": false,
      "stateMutability": "view",
      "type": "function"
    },
    {
      "constant": true,
      "inputs": [],
      "name": "owner",
      "outputs": [
        {
          "internalType": "address",
          "name": "",
          "type": "address"
        }
      ],
      "payable": false,
      "stateMutability": "view",
      "type": "function"
    },
    {
      "constant": true,
      "inputs": [
        {
          "internalType": "uint256",
          "name": "",
          "type": "uint256"
        }
      ],
      "name": "stakers",
      "outputs": [
        {
          "internalType": "address",
          "name": "",
          "type": "address"
        }
      ],
      "payable": false,
      "stateMutability": "view",
      "type": "function"
    },
    {
      "constant": true,
      "inputs": [
        {
          "internalType": "address",
          "name": "",
          "type": "address"
        }
      ],
      "name": "stakingBalance",
      "outputs": [
        {
          "internalType": "uint256",
          "name": "",
          "type": "uint256"
        }
      ],
      "payable": false,
      "stateMutability": "view",
      "type": "function"
    },
    {
      "constant": false,
      "inputs": [
        {
          "internalType": "uint256",
          "name": "_amount",
          "type": "uint256"
        }
      ],
      "name": "stakeTokens",
      "outputs": [],
      "payable": false,
      "stateMutability": "nonpayable",
      "type": "function"
    },
    {
      "constant": false,
      "inputs": [],
      "name": "unstakeTokens",
      "outputs": [],
      "payable": false,
      "stateMutability": "nonpayable",
      "type": "function"
    },
    {
      "constant": false,
      "inputs": [],
      "name": "issueTokens",
      "outputs": [],
      "payable": false,
      "stateMutability": "nonpayable",
      "type": "function"
    }
  ],
  "bytecode": "0x60806040526040518060400160405280600f81526020017f4241424120546f6b656e20506f6f6c00000000000000000000000000000000008152506000908051906020019061004f929190610164565b5034801561005c57600080fd5b506040516110453803806110458339818101604052604081101561007f57600080fd5b81019080805190602001909291908051906020019092919050505081600260006101000a81548173ffffffffffffffffffffffffffffffffffffffff021916908373ffffffffffffffffffffffffffffffffffffffff16021790555080600360006101000a81548173ffffffffffffffffffffffffffffffffffffffff021916908373ffffffffffffffffffffffffffffffffffffffff16021790555033600160006101000a81548173ffffffffffffffffffffffffffffffffffffffff021916908373ffffffffffffffffffffffffffffffffffffffff1602179055505050610209565b828054600181600116156101000203166002900490600052602060002090601f016020900481019282601f106101a557805160ff19168380011785556101d3565b828001600101855582156101d3579182015b828111156101d25782518255916020019190600101906101b7565b5b5090506101e091906101e4565b5090565b61020691905b808211156102025760008160009055506001016101ea565b5090565b90565b610e2d806102186000396000f3fe608060405234801561001057600080fd5b50600436106100c5576000357c0100000000000000000000000000000000000000000000000000000000900480637547c7a31161008e5780637547c7a3146102555780638da5cb5b14610283578063a5ce413b146102cd578063b8f74029146102d7578063c93c8f3414610321578063fd5e6dd11461037d576100c5565b806248ceb8146100ca57806306fdde031461011457806345bc78ab1461019757806360ab5852146101ef5780636f49712b146101f9575b600080fd5b6100d26103eb565b604051808273ffffffffffffffffffffffffffffffffffffffff1673ffffffffffffffffffffffffffffffffffffffff16815260200191505060405180910390f35b61011c610411565b6040518080602001828103825283818151815260200191508051906020019080838360005b8381101561015c578082015181840152602081019050610141565b50505050905090810190601f1680156101895780820380516001836020036101000a031916815260200191505b509250505060405180910390f35b6101d9600480360360208110156101ad57600080fd5b81019080803573ffffffffffffffffffffffffffffffffffffffff1690602001909291905050506104af565b6040518082815260200191505060405180910390f35b6101f76104c7565b005b61023b6004803603602081101561020f57600080fd5b81019080803573ffffffffffffffffffffffffffffffffffffffff16906020019092919050505061073a565b604051808215151515815260200191505060405180910390f35b6102816004803603602081101561026b57600080fd5b810190808035906020019092919050505061075a565b005b61028b610af5565b604051808273ffffffffffffffffffffffffffffffffffffffff1673ffffffffffffffffffffffffffffffffffffffff16815260200191505060405180910390f35b6102d5610b1b565b005b6102df610d76565b604051808273ffffffffffffffffffffffffffffffffffffffff1673ffffffffffffffffffffffffffffffffffffffff16815260200191505060405180910390f35b6103636004803603602081101561033757600080fd5b81019080803573ffffffffffffffffffffffffffffffffffffffff169060200190929190505050610d9c565b604051808215151515815260200191505060405180910390f35b6103a96004803603602081101561039357600080fd5b8101908080359060200190929190505050610dbc565b604051808273ffffffffffffffffffffffffffffffffffffffff1673ffffffffffffffffffffffffffffffffffffffff16815260200191505060405180910390f35b600260009054906101000a900473ffffffffffffffffffffffffffffffffffffffff1681565b60008054600181600116156101000203166002900480601f0160208091040260200160405190810160405280929190818152602001828054600181600116156101000203166002900480156104a75780601f1061047c576101008083540402835291602001916104a7565b820191906000526020600020905b81548152906001019060200180831161048a57829003601f168201915b505050505081565b60056020528060005260406000206000915090505481565b600160009054906101000a900473ffffffffffffffffffffffffffffffffffffffff1673ffffffffffffffffffffffffffffffffffffffff163373ffffffffffffffffffffffffffffffffffffffff161461058a576040517f08c379a00000000000000000000000000000000000000000000000000000000081526004018080602001828103825260188152602001807f63616c6c6572206d75737420626520746865206f776e6572000000000000000081525060200191505060405180910390fd5b60008090505b600480549050811015610737576000600482815481106105ac57fe5b9060005260206000200160009054906101000a900473ffffffffffffffffffffffffffffffffffffffff1690506000600560008373ffffffffffffffffffffffffffffffffffffffff1673ffffffffffffffffffffffffffffffffffffffff168152602001908152602001600020549050600081111561072857600260009054906101000a900473ffffffffffffffffffffffffffffffffffffffff1673ffffffffffffffffffffffffffffffffffffffff1663a9059cbb83836040518363ffffffff167c0100000000000000000000000000000000000000000000000000000000028152600401808373ffffffffffffffffffffffffffffffffffffffff1673ffffffffffffffffffffffffffffffffffffffff16815260200182815260200192505050602060405180830381600087803b1580156106eb57600080fd5b505af11580156106ff573d6000803e3d6000fd5b505050506040513d602081101561071557600080fd5b8101908080519060200190929190505050505b50508080600101915050610590565b50565b60076020528060005260406000206000915054906101000a900460ff1681565b600081116107d0576040517f08c379a00000000000000000000000000000000000000000000000000000000081526004018080602001828103825260128152602001807f616d6f756e742063616e6e6f742062652030000000000000000000000000000081525060200191505060405180910390fd5b600360009054906101000a900473ffffffffffffffffffffffffffffffffffffffff1673ffffffffffffffffffffffffffffffffffffffff166323b872dd3330846040518463ffffffff167c0100000000000000000000000000000000000000000000000000000000028152600401808473ffffffffffffffffffffffffffffffffffffffff1673ffffffffffffffffffffffffffffffffffffffff1681526020018373ffffffffffffffffffffffffffffffffffffffff1673ffffffffffffffffffffffffffffffffffffffff1681526020018281526020019350505050602060405180830381600087803b1580156108c957600080fd5b505af11580156108dd573d6000803e3d6000fd5b505050506040513d60208110156108f357600080fd5b81019080805190602001909291905050505080600560003373ffffffffffffffffffffffffffffffffffffffff1673ffffffffffffffffffffffffffffffffffffffff1681526020019081526020016000205401600560003373ffffffffffffffffffffffffffffffffffffffff1673ffffffffffffffffffffffffffffffffffffffff16815260200190815260200160002081905550600660003373ffffffffffffffffffffffffffffffffffffffff1673ffffffffffffffffffffffffffffffffffffffff16815260200190815260200160002060009054906101000a900460ff16610a425760043390806001815401808255809150509060018203906000526020600020016000909192909190916101000a81548173ffffffffffffffffffffffffffffffffffffffff021916908373ffffffffffffffffffffffffffffffffffffffff160217905550505b6001600760003373ffffffffffffffffffffffffffffffffffffffff1673ffffffffffffffffffffffffffffffffffffffff16815260200190815260200160002060006101000a81548160ff0219169083151502179055506001600660003373ffffffffffffffffffffffffffffffffffffffff1673ffffffffffffffffffffffffffffffffffffffff16815260200190815260200160002060006101000a81548160ff02191690831515021790555050565b600160009054906101000a900473ffffffffffffffffffffffffffffffffffffffff1681565b6000600560003373ffffffffffffffffffffffffffffffffffffffff1673ffffffffffffffffffffffffffffffffffffffff16815260200190815260200160002054905060008111610bd5576040517f08c379a000000000000000000000000000000000000000000000000000000000815260040180806020018281038252601b8152602001807f7374616b696e672062616c616e63652063616e6e6f742062652030000000000081525060200191505060405180910390fd5b600360009054906101000a900473ffffffffffffffffffffffffffffffffffffffff1673ffffffffffffffffffffffffffffffffffffffff1663a9059cbb33836040518363ffffffff167c0100000000000000000000000000000000000000000000000000000000028152600401808373ffffffffffffffffffffffffffffffffffffffff1673ffffffffffffffffffffffffffffffffffffffff16815260200182815260200192505050602060405180830381600087803b158015610c9a57600080fd5b505af1158015610cae573d6000803e3d6000fd5b505050506040513d6020811015610cc457600080fd5b8101908080519060200190929190505050506000600560003373ffffffffffffffffffffffffffffffffffffffff1673ffffffffffffffffffffffffffffffffffffffff168152602001908152602001600020819055506000600760003373ffffffffffffffffffffffffffffffffffffffff1673ffffffffffffffffffffffffffffffffffffffff16815260200190815260200160002060006101000a81548160ff02191690831515021790555050565b600360009054906101000a900473ffffffffffffffffffffffffffffffffffffffff1681565b60066020528060005260406000206000915054906101000a900460ff1681565b60048181548110610dc957fe5b906000526020600020016000915054906101000a900473ffffffffffffffffffffffffffffffffffffffff168156fea265627a7a7231582082054c35ebcc16dc2f04b456c6e4bd9a882dcf892e4aee2541aae02b19221b1464736f6c63430005100032",
  "source": "pragma solidity ^0.5.1;\n\nimport \"./BabaToken.sol\";\nimport \"./MetroToken.sol\";\n\ncontract BabaTokenPool {\n    string public name = \"BABA Token Pool\";\n    address public owner;\n    BabaToken public babaToken;\n    MetroToken public metroToken;\n\n    address[] public stakers;\n    mapping(address => uint) public stakingBalance;\n    mapping(address => bool) public hasStaked;\n    mapping(address => bool) public isStaking;\n\n    constructor(BabaToken _babaToken, MetroToken _metroToken ) public { \n        babaToken = _babaToken;\n        metroToken = _metroToken;\n        owner = msg.sender;\n    }\n\n    function stakeTokens(uint _amount) public {\n        // Require amount greater than 0\n        require(_amount > 0, \"amount cannot be 0\");\n\n        // Trasnfer Metro tokens to this contract for staking\n        metroToken.transferFrom(msg.sender, address(this), _amount);\n\n        // Update staking balance\n        stakingBalance[msg.sender] = stakingBalance[msg.sender] + _amount;\n\n        // Add user to stakers array *only* if they haven't staked already\n        if(!hasStaked[msg.sender]) {\n            stakers.push(msg.sender);\n        }\n\n        // Update staking status\n        isStaking[msg.sender] = true;\n        hasStaked[msg.sender] = true;\n    }\n\n    // Unstaking Tokens (Withdraw)\n    function unstakeTokens() public {\n        // Fetch staking balance\n        uint balance = stakingBalance[msg.sender];\n\n        // Require amount greater than 0\n        require(balance > 0, \"staking balance cannot be 0\");\n\n        // Transfer Metro tokens to this contract for staking\n        metroToken.transfer(msg.sender, balance);\n\n        // Reset staking balance\n        stakingBalance[msg.sender] = 0;\n\n        // Update staking status\n        isStaking[msg.sender] = false;\n    }\n\n    // Issuing Tokens\n    function issueTokens() public {\n        // Only owner can call this function\n        require(msg.sender == owner, \"caller must be the owner\");\n\n        // Issue tokens to all stakers\n        for (uint i=0; i<stakers.length; i++) {\n            address recipient = stakers[i];\n            uint balance = stakingBalance[recipient];\n            if(balance > 0) {\n                babaToken.transfer(recipient, balance);\n            }\n        }\n    }\n}\n",
  "sourcePath": "/Users/iakai/Desktop/Materials_for_thesis/_routing_react_project/stakingpool-metrotoken/contracts/BabaTokenPool.sol",
  "compiler": {
    "name": "solc",
    "version": "0.5.16+commit.9c3226ce.Emscripten.clang"
  },
  "schemaVersion": "3.2.3",
  "updatedAt": "2021-11-09T00:54:29.978Z",
  "devdoc": {
    "methods": {}
  },
  "userdoc": {
    "methods": {}
  }
}